S01600006361725F6D6F746F725F70726F6A2E737265632E
S11300000C942A000C9434000C9434000C943400A6
S11300100C9434000C9434000C9434000C9434008C
S11300200C9434000C9434000C9434000C9434007C
S11300300C9434000C9434000C9434000C9434006C
S11300400C9434000C9434000C9434000C9434005C
S11300500C94340011241FBECFE5D4E0DEBFCDBF25
S11300600E94BF000C94DE020C94000060E00E9429
S1130070950108950E94AB02089561E00E949501E4
S1130080089560E00E942002089561E00E94200229
S1130090089561E080EC0E94950161E081EC0E948A
S11300A0950161E082EC0E94950161E083EC0E947D
S11300B0950161E087ED0E94950161E086ED0E9463
S11300C0950161E087ED0E94200261E086ED0E94C7
S11300D02002089561E080EC0E94200260E081EC3F
S11300E00E94200261E082EC0E94200260E083EC26
S11300F00E942002089560E080EC0E94200261E0EA
S113010081EC0E94200260E082EC0E94200261E007
S113011083EC0E942002089560E080EC0E9420029B
S113012060E081EC0E94200261E082EC0E942002E7
S113013060E083EC0E942002089561E080EC0E945C
S1130140200260E081EC0E94200260E082EC0E94C8
S1130150200260E083EC0E942002089560E080ECBD
S11301600E94200260E081EC0E94200260E082ECA8
S11301700E94200260E083EC0E942002089580EA3D
S11301800E943D0081EA0E943D0082EA0E943D00F7
S113019080EB0E94360081EB0E94360082EB0E94C5
S11301A0360083EB0E9436000E944900412C512CFA
S11301B03201812C912C5401C12CD12C760180EB7D
S11301C00E943A00813089F40E946A000F2EF8EBF5
S11301D04F2EFBE05F2E612C712CF02D812C912C85
S11301E05401C12CD12C760157C081EB0E943A00F6
S11301F0813089F40E949D00412C512C32010F2E34
S1130200F8EB8F2EFBE09F2EA12CB12CF02DC12CEE
S1130210D12C760141C082EB0E943A00813089F4EE
S11302200E948C00412C512C3201812C912C5401C0
S11302300F2EF8EBCF2EFBE0DF2EE12CF12CF02D6E
S11302402BC083EB0E943A008130B1F40E947B0002
S1130250412C512C32010F2EF8EB8F2EFBE09F2EF8
S1130260A12CB12CF02D0F2EF8EBCF2EFBE0DF2EBE
S1130270E12CF12CF02D10C084EB0E943A00813067
S113028059F40E94AE00412C512C3201812C912C46
S11302905401C12CD12C7601C114D104E104F10420
S11302A021F080EA0E94450003C080EA0E944100D8
S11302B081149104A104B10421F081EA0E94450053
S11302C003C081EA0E944100411451046104710495
S11302D021F082EA0E94450003C082EA0E944100A4
S11302E0C114D104E104F10429F081E0C81AD10851
S11302F0E108F10881149104A104B10429F091E00A
S1130300891A9108A108B1084114510461047104C7
S113031029F081E0481A51086108710889EF90E0DA
S11303200197F1F700C000004ACF982F9F70807F9B
S1130330662309F442C0613009F081C0803BB1F00A
S113034018F4803A31F00895803CE9F0803D41F1A1
S113035008954AB321E030E0B90102C0660F771F67
S11303609A95E2F7CB01842B8ABB089547B321E029
S113037030E0B90102C0660F771F9A95E2F7CB010E
S1130380842B87BB089544B321E030E0B90102C057
S1130390660F771F9A95E2F7CB01842B84BB0895EF
S11303A041B321E030E0B90102C0660F771F9A958E
S11303B0E2F7CB01842B81BB0895803BB9F018F49C
S11303C0803A31F00895803CF9F0803D59F1089568
S11303D04AB321E030E0B90102C0660F771F9A9555
S11303E0E2F7CB01809584238ABB089547B321E0CB
S11303F030E0B90102C0660F771F9A95E2F7CB018E
S11304008095842387BB089544B321E030E0B9018B
S113041002C0660F771F9A95E2F7CB01809584237B
S113042084BB089541B321E030E0B90102C0660FF6
S1130430771F9A95E2F7CB018095842381BB0895B9
S1130440982F9F70807F662309F442C0613009F0C1
S113045081C0803BB1F018F4803A31F00895803CBB
S1130460E9F0803D41F108954BB321E030E0B9015A
S113047002C0660F771F9A95E2F7CB01842B8BBBE2
S1130480089548B321E030E0B90102C0660F771F38
S11304909A95E2F7CB01842B88BB089545B321E0FC
S11304A030E0B90102C0660F771F9A95E2F7CB01DD
S11304B0842B85BB089542B321E030E0B90102C02A
S11304C0660F771F9A95E2F7CB01842B82BB0895C0
S11304D0803BB9F018F4803A31F00895803CF9F08B
S11304E0803D59F108954BB321E030E0B90102C0D9
S11304F0660F771F9A95E2F7CB01809584238BBB17
S1130500089548B321E030E0B90102C0660F771FB7
S11305109A95E2F7CB018095842388BB089545B36F
S113052021E030E0B90102C0660F771F9A95E2F727
S1130530CB018095842385BB089542B321E030E04C
S1130540B90102C0660F771F9A95E2F7CB01809537
S1130550842382BB0895282F2F70807F803B91F0E5
S113056018F4803A31F029C0803CA9F0803DE1F0D4
S113057024C089B390E002C0959587952A95E2F747
S11305808170089586B390E002C0959587952A9569
S1130590E2F78170089583B390E002C09595879542
S11305A02A95E2F78170089580B390E002C0959592
S11305B087952A95E2F7817008950895F894FFCFFE
S9030000FC
